S019000053504920636F6D6D756E69636174696F6E2E7372656389
S11300000C942A000C9434000C9434000C943400A6
S11300100C9434000C9434000C9434000C9434008C
S11300200C9434000C9434000C9434000C9434007C
S11300300C9434000C9434000C9434000C9434006C
S11300400C9434000C9434000C9434000C9434005C
S11300500C94340011241FBECFE5D8E0DEBFCDBF21
S11300600E9436000C949A000C9400000E946800D0
S113007081E40E949000FCCF8A3020F52AE330E02E
S1130080F901E81BF1096830F8F4413061F481E0CA
S113009090E002C0880F991F6A95E2F79081892B3E
S11300A0808384E00895411111C081E090E002C092
S11300B0880F991F6A95E2F7809590818923808340
S11300C084E0089582E0089581E0089583E008952E
S11300D041E067E083E00E943C0041E065E083E0AA
S11300E00E943C0041E064E083E00E943C0088B34D
S11300F0806188BB8DB180658DB98DB181608DB90A
S11301008DB1877F8DB98DB18B7F8DB98DB18F778F
S11301108DB98FB78F778FBF8DB18F7D8DB90895CE
S113012098B39F7E98BB8FB9779BFECF88B38061CD
S10B013088BB0895F894FFCF89
S9030000FC
